:100000000C942A000C9496010C9447000C94470021
:100010000C9447000C9447000C9447000C94470044
:100020000C9447000C9447000C9447000C944E012C
:100030000C9447000C9447000C9447000C94470024
:100040000C9447000C9447000C9447000C94470014
:100050000C94470011241FBECFE5D4E0DEBFCDBF16
:1000600011E0A0E6B0E0E6E1F7E102C005900D92F4
:10007000AC3BB107D9F723E0ACEBB1E001C01D9276
:10008000A936B207E1F70E94DE010C94890B0C94AB
:1000900000000E944D08009751F06AE370E00E9452
:1000A0004208009739F001960E942408089580E0E4
:1000B00090E0089580E090E00895CF93DF93EC0105
:1000C0006AE670E00E94490090936900809368009E
:1000D00068E770E0CE010E9449009093670080932A
:1000E000660066E870E0CE010E94490090936500CA
:1000F0008093640065E970E0CE010E94490090930E
:1001000063008093620065EA70E0CE010E944900BE
:10011000909361008093600064EB70E0CE010E94D8
:1001200049008093C001DF91CF9108956115710559
:1001300051F0FC01680F791F80E091918927E61743
:10014000F707D9F7089580E00895CF92DF92EF92F4
:10015000FF920F931F93CF93DF93CFECD1E080E01A
:1001600091E0FE019C01119221503040E1F7809115
:10017000C0019091BF011F929F931F928F93809116
:10018000C1011F928F938091C3018F938091C2010F
:100190008F938091C5018F938091C4018F9380913B
:1001A000C7018F938091C6018F93809161008F93D7
:1001B000809160008F93809163008F9380916200A3
:1001C0008F93809165008F93809164008F938091CD
:1001D000BE018F938091BD018F93809167008F93B3
:1001E000809166008F93809169008F938091680061
:1001F0008F938CEB90E09F938F9381E08F931F926E
:10020000DF93CF930E946F08CE010E94BC05099036
:100210000020E9F72197CF5CD140BE018FEC91E03F
:100220000E949600FE01E153FE4F80837E019FEF06
:10023000E91AF90AEDB7FEB77E960FB6F894FEBF3D
:100240000FBEEDBFE114F10401F100E010E00F2E4C
:10025000F6E9CF2EF02DD12CE701C01BD10BC73909
:10026000D10508F0CC2DB80161537E4F4C2F88E2A8
:100270000E948F040C0F111D8FE19EE40197F1F78E
:1002800000C000000E151F0538F3DF91CF911F91BC
:100290000F91FF90EF90DF90CF9008951F920F92F3
:1002A0000FB60F9211242F933F934F935F936F9349
:1002B0007F938F939F93AF93BF93EF93FF930E948E
:1002C0008F058091C801882301F183ED92E00E949F
:1002D0005D008091C001811106C00E94A60381E0EB
:1002E0000E949A0306C080E00E949A0381E00E9467
:1002F000A60384E6E3EDF2E0DF011D928A95E9F7BB
:100300001092C80181E08093BC01FF91EF91BF91F1
:10031000AF919F918F917F916F915F914F913F919D
:100320002F910F900FBE0F901F9018951F920F9254
:100330000FB60F9211242F933F934F935F936F93B8
:100340007F938F939F93AF93BF93EF93FF938FE12F
:100350009EE40197F1F700C0000082991EC08091D1
:10036000C001882369F01092C00180E00E94A603BA
:1003700081E00E949A0382E891E00E94BC050DC0D2
:1003800081E08093C00180E00E949A0381E00E9496
:10039000A6038DE891E00E94BC05FF91EF91BF910B
:1003A000AF919F918F917F916F915F914F913F910D
:1003B0002F910F900FBE0F901F90189583E390E040
:1003C0000E9487050E94FF040E94B2030E948604D7
:1003D0000E94D5030E94BE0380E80E9423042FEFF1
:1003E00084E39CE0215080409040E1F700C0000091
:1003F000789487E991E00E94BC0584E60E9470042D
:1004000082EA91E00E94BC056EE47AEE8EEB90E405
:100410000E947D04CFECD1E0E12CFF24F3940EEA9E
:1004200011E08091BC01882321F00E94A500109268
:10043000BC018091C00181110AC0EFECF7E0319757
:10044000F1F700C000008091C0018823B1F38091D2
:10045000C801882321F00E94A5001092C80181E004
:100460000E94630420E030E040E251E40E949007E3
:100470001816BCF6FFEF21EE84E0F15020408040DA
:10048000E1F700C000008AE00E9463044B015C01B8
:1004900020E030E0A9010E94380688231CF4812C5A
:1004A000912C5401C501B4010E94AF066093BD01B7
:1004B0007093BE01FE01C70111920197E9F77F9386
:1004C0006F931F930F93DF93CF930E949F08CE01EA
:1004D0000E94BC058091BD019091BE010F900F90CC
:1004E0000F900F900F900F908A30910508F461C023
:1004F00020916800309169008217930708F061C06D
:100500002091C6013091C701820F931F2091640092
:10051000309165008217930710F181E08093BF014D
:1005200082E00E949A031092C0010E94A50080916F
:10053000C00181110AC08FEC97E00197F1F700C06C
:1005400000008091C0018823B1F31092C70110927E
:10055000C6011092BF0182E00E94A603E8C00E947B
:10056000770581E00E94C5038130D9F38DE20E94B6
:1005700014059FEFE9E6F8E19150E040F040E1F723
:1005800000C0000080E00E9414052091C601309157
:10059000C7018091BD019091BE01820F931F90937E
:1005A000C7018093C6018091C1018F5F8093C10113
:1005B000BEC020916800309169008217930708F44B
:1005C00061C020916600309167008217930708F0A0
:1005D00061C02091C4013091C501820F931F209109
:1005E0006200309163008217930710F181E08093DD
:1005F000BF0182E00E949A031092C0010E94A500F0
:100600008091C00181110AC08FEC97E00197F1F74A
:1006100000C000008091C0018823B1F31092C50191
:100620001092C4011092BF0182E00E94A6037FC015
:100630000E94770582E00E94C5038130D9F38DE2E4
:100640000E9435059FEFE9E6F8E19150E040F04067
:10065000E1F700C0000080E00E9435052091C40150
:100660003091C5018091BD019091BE01820F931F11
:100670009093C5018093C4018091C1018F5F8093E5
:10068000C10155C020916600309167008217930721
:1006900008F44DC02091C2013091C301820F931F15
:1006A00020916000309161008217930710F181E082
:1006B0008093BF0182E00E949A031092C0010E94C1
:1006C000A5008091C00181110AC08FEC97E00197CD
:1006D000F1F700C000008091C0018823B1F31092AF
:1006E000C3011092C2011092BF0182E00E94A603D2
:1006F0001EC00E9477059FEFE9E6F8E19150E040C7
:10070000F040E1F700C000002091C2013091C30128
:100710008091BD019091BE01820F931F9093C30100
:100720008093C2018091C1018F5F8093C1010E94BB
:10073000A50077CE813031F018F0823029F008958D
:10074000D99A0895DA9A0895DB9A0895813031F0A4
:1007500018F0823029F00895D9980895DA9808950C
:10076000DB9808958A98929A85B7826085BF85B78D
:100770008E7F85BF8BB780648BBF089584B3837FE2
:1007800084BB85B38C6085BB0895813029F483B325
:1007900082FB882780F90895823029F483B383FB94
:1007A000882780F9089580E00895D49ADC98089508
:1007B00086B38695869591E08927817090E00895AB
:1007C0000E94D803892BE1F3C29A0000C19800006F
:1007D000B299FECF28E180E090E0DC01C19A0000F0
:1007E000880F991FAA1FBB1FC1980000B29B03C0AE
:1007F0000196A11DB11D215089F7689415F8B69591
:10080000A795979587951694D1F7C19A0000C1983E
:100810000000BC01CD0180580895803449F0803833
:1008200019F0803261F408C081E08093CE0107C0E6
:1008300083E08093CE0103C082E08093CE01C19813
:100840000E94E0030895B99ABA98C29A0E940D04D2
:100850000895CF92DF92EF92FF92CF93DF93D82F3C
:10086000882371F0C0E0C12CD12C76010E94E003F6
:10087000C60ED71EE81EF91ECF5FDC13F7CF03C0EC
:10088000C12CD12C76012D2F30E040E050E0C70183
:10089000B6010E940208CA01B901DF91CF91FF9011
:1008A000EF90DF90CF9008950E9429040E94DE0609
:1008B0002091CA013091CB014091CC015091CD01E2
:1008C0000E94CB0508950E9454042091CF023091DC
:1008D000D0024091D1025091D2020E943D0608956B
:1008E0000E9429040E94DE066093CA017093CB0126
:1008F0008093CC019093CD0108956093CF027093C3
:10090000D0028093D1029093D202089580E280B900
:1009100011B884B38C7F84BB84E086BF08954423E0
:1009200081F194EA96BF06B607FEFDCF91B1987F9C
:10093000983049F5880F83B984E886BF06B607FE6C
:10094000FDCF81B1887F883101F5FB014150842FB3
:1009500090E00196680F791F94E8819183B996BF62
:1009600006B607FEFDCF81B1887F883281F4E61795
:10097000F70799F784E986BF06B604FCFDCF81E04E
:10098000089580E0089580E0089580E0089580E073
:10099000089582EA8FBD8AE18EBD8D9A8C9A089562
:1009A000880F991F880F991F880F991F9C0140E09D
:1009B00050E060E072E18AE790E00E940208215076
:1009C000310937BD26BD08959BBD8ABD089599BDE7
:1009D00088BD089583B7886483BF83B7806283BF6F
:1009E00083B7846083BFBB9A089596958795929547
:1009F00082958F7089279F7089278CBF08950E94E8
:100A0000C9040E94EA0482E390E00E94D00484EFCB
:100A100091E00E94F50484EF91E00E94E40484EFE9
:100A200091E00E94E7040895853B08F084EB682F6D
:100A300070E080E090E00E94E00620E030E443E0D7
:100A400055E40E94950720E030E044E353E40E941F
:100A50003D0620E030E04AEF53E40E94CC050E94BE
:100A6000AF06CB010E94E4040895853B08F084EBB7
:100A7000682F70E080E090E00E94E00620E030E423
:100A800043E055E40E94950720E030E044E353E45E
:100A90000E943D0620E030E04AEF53E40E94CC057E
:100AA0000E94AF06CB010E94E7040895853B08F041
:100AB00084EB682F70E080E090E00E94E00620E088
:100AC00030E443E055E40E94950720E030E044E341
:100AD00053E40E943D0620E030E04AEF53E40E94D8
:100AE000CC050E94AF06CB010E94F504089584EB6B
:100AF0000E9456052FE78AE196E021508040904001
:100B0000E1F700C0000080E00E945605089590BD06
:100B100089B91BB888E98AB986E880BD08958CB187
:100B20008D37B9F4E091C90181E08E0F8093C9013E
:100B3000F0E0ED52FD4F8DE78083E091C901F0E0D8
:100B4000ED52FD4F108281E08093C8011092C901DF
:100B500008959091C901953950F4E091C90191E04F
:100B60009E0F9093C901F0E0ED52FD4F80830895F0
:100B70005D9BFECF8CB90895CF93DF93EC01888104
:100B8000882331F021960E94B80589918111FBCF0D
:100B9000DF91CF9108955058BB27AA270E94E30503
:100BA0000C9456070E94480738F00E944F0720F027
:100BB00039F49F3F19F426F40C9445070EF4E095A0
:100BC000E7FB0C943F07E92F0E94670758F3BA1719
:100BD000620773078407950720F079F4A6F50C9453
:100BE00089070EF4E0950B2EBA2FA02D0B01B90149
:100BF00090010C01CA01A0011124FF27591B99F093
:100C0000593F50F4503E68F11A16F040A22F232F9E
:100C1000342F4427585FF3CF469537952795A795EE
:100C2000F0405395C9F77EF41F16BA0B620B730B95
:100C3000840BBAF09150A1F0FF0FBB1F661F771F06
:100C4000881FC2F70EC0BA0F621F731F841F48F4BB
:100C5000879577956795B795F7959E3F08F0B0CF44
:100C60009395880F08F09927EE0F9795879508952B
:100C70000E941B0708F481E008950E9451060C941D
:100C800056070E944F0758F00E94480740F029F489
:100C90005F3F29F00C943F0751110C948A070C9484
:100CA00045070E94670768F39923B1F3552391F331
:100CB000951B550BBB27AA2762177307840738F0CB
:100CC0009F5F5F4F220F331F441FAA1FA9F335D028
:100CD0000E2E3AF0E0E832D091505040E695001CDC
:100CE000CAF72BD0FE2F29D0660F771F881FBB1F96
:100CF000261737074807AB07B0E809F0BB0B802D74
:100D0000BF01FF2793585F4F3AF09E3F510578F09F
:100D10000C943F070C948A075F3FE4F3983ED4F3AA
:100D2000869577956795B795F7959F5FC9F7880F73
:100D3000911D9695879597F90895E1E0660F771FC5
:100D4000881FBB1F621773078407BA0720F0621B56
:100D5000730B840BBA0BEE1F88F7E09508950E9481
:100D60006F0788F09F5798F0B92F9927B751B0F0C7
:100D7000E1F0660F771F881F991F1AF0BA95C9F71F
:100D800014C0B13091F00E948907B1E008950C942D
:100D90008907672F782F8827B85F39F0B93FCCF3E0
:100DA000869577956795B395D9F73EF4909580959C
:100DB000709561957F4F8F4F9F4F0895E89409C0BC
:100DC00097FB3EF490958095709561957F4F8F4F7E
:100DD0009F4F9923A9F0F92F96E9BB279395F69594
:100DE000879577956795B795F111F8CFFAF4BB0F12
:100DF00011F460FF1BC06F5F7F4F8F4F9F4F16C076
:100E0000882311F096E911C0772321F09EE8872FFF
:100E1000762F05C0662371F096E8862F70E060E0BB
:100E20002AF09A95660F771F881FDAF7880F969534
:100E3000879597F90895990F0008550FAA0BE0E8D8
:100E4000FEEF16161706E807F907C0F0121613068C
:100E5000E407F50798F0621B730B840B950B39F4CC
:100E60000A2661F0232B242B252B21F408950A2632
:100E700009F4A140A6958FEF811D811D089597F972
:100E80009F6780E870E060E008959FEF80EC089530
:100E900000240A9416161706180609060895002459
:100EA0000A9412161306140605060895092E0394D3
:100EB000000C11F4882352F0BB0F40F4BF2B11F447
:100EC00060FF04C06F5F7F4F8F4F9F4F089557FDA6
:100ED0009058440F551F59F05F3F71F04795880FA8
:100EE00097FB991F61F09F3F79F08795089512163F
:100EF00013061406551FF2CF4695F1DF08C01616EB
:100F000017061806991FF1CF86957105610508949B
:100F10000895E894BB2766277727CB0197F90895B2
:100F20000E941B0708F48FEF08950E94A8070C94F5
:100F300056070E94480738F00E944F0720F095237B
:100F400011F00C943F070C94450711240C948A0768
:100F50000E94670770F3959FC1F3950F50E0551FEE
:100F6000629FF001729FBB27F00DB11D639FAA27FE
:100F7000F00DB11DAA1F649F6627B00DA11D661F4D
:100F8000829F2227B00DA11D621F739FB00DA11D6E
:100F9000621F839FA00D611D221F749F3327A00D28
:100FA000611D231F849F600D211D822F762F6A2FC4
:100FB00011249F5750409AF0F1F088234AF0EE0F29
:100FC000FF1FBB1F661F771F881F91505040A9F756
:100FD0009E3F510580F00C943F070C948A075F3FB9
:100FE000E4F3983ED4F3869577956795B795F79592
:100FF000E7959F5FC1F7FE2B880F911D969587950A
:1010000097F90895A1E21A2EAA1BBB1BFD010DC082
:10101000AA1FBB1FEE1FFF1FA217B307E407F507A8
:1010200020F0A21BB30BE40BF50B661F771F881F84
:10103000991F1A9469F760957095809590959B011A
:10104000AC01BD01CF010895FC0188279927E894E0
:1010500021912032E9F3293010F02E30C8F32B32E1
:1010600041F02D3239F4689404C00E946708820F61
:10107000911D219120532A30C0F31EF49095819543
:101080009F4F0895FC018191861721F08823D9F79D
:10109000992708953197CF010895FB015191552368
:1010A000A9F0BF01DC014D9145174111E1F759F459
:1010B000CD010190002049F04D9140154111C9F337
:1010C000FB014111EFCF81E090E0019708957AE0B4
:1010D000979F902D879F802D910D11240895AEE04C
:1010E000B0E0E5E7F8E00C94600B0D891E898F896C
:1010F000988D26E02C831A83098397FF02C080E035
:1011000090E801979E838D83AE01455E5F4F698DA8
:101110007A8DCE0101960E94C1084D815E8157FDF6
:101120000AC02F813885421753070CF49A01F80141
:10113000E20FF31F10822E96E4E00C947C0BAEE0DD
:10114000B0E0E5EAF8E00C94600B0D891E8986E0BA
:101150008C831A8309838FEF9FE79E838D83AE0173
:10116000475E5F4F6F89788DCE0101960E94C1085E
:10117000EF81F885E00FF11F10822E96E4E00C94C9
:101180007C0BABE0B0E0E7ECF8E00C94520B6C01A8
:101190007B018A01FC0117821682838181FFCCC109
:1011A000CE0101963C01F6019381F70193FD8591F3
:1011B00093FF81917F01882309F4BAC1853239F404
:1011C00093FD859193FF81917F01853229F4B601CA
:1011D00090E00E94B80AE7CF912C212C312CFFE13E
:1011E000F315D8F08B3279F038F4803279F083320D
:1011F000A1F4232D20611DC08D3261F0803369F48C
:10120000232D216016C0832D8260382EE32DE460EB
:101210003E2E2AC0F32DF8601DC037FC2DC020EDF6
:10122000280F2A3040F08E32B9F436FC81C1232DCC
:101230002064322E19C036FE06C08AE0989E200D2A
:101240001124922E11C0EAE02E9E200D1124222E90
:10125000F32DF0623F2E08C08C3621F4832D806878
:10126000382E02C0883641F4F70193FD859193FF33
:1012700081917F018111B3CF982F9F7D9554933039
:1012800028F40C5F1F4F9FE399830DC0833631F024
:10129000833771F0833509F059C021C0F80180818E
:1012A00089830E5F1F4F88248394912C530113C0B0
:1012B0002801F2E04F0E511CF801A080B18036FEEB
:1012C00003C0692D70E002C06FEF7FEFC5010E947F
:1012D000AD0A4C018201F32DFF773F2E16C0280185
:1012E00022E0420E511CF801A080B18036FE03C0FE
:1012F000692D70E002C06FEF7FEFC5010E94A20A66
:101300004C01F32DF0683F2E820133FC1BC0822D6F
:1013100090E088169906B0F4B60180E290E00E9451
:10132000B80A2A94F4CFF50137FC859137FE8191F4
:101330005F01B60190E00E94B80A21102A9421E0D2
:10134000821A91088114910471F7E8C0843611F073
:10135000893641F5F80137FE07C0608171818281CD
:1013600093810C5F1F4F08C060817181072E000CB4
:10137000880B990B0E5F1F4FF32DFF763F2E97FFC3
:1013800009C090958095709561957F4F8F4F9F4FC5
:10139000F0683F2E2AE030E0A3010E94F40A882E74
:1013A000861845C0853731F4232D2F7EB22E2AE0D2
:1013B00030E025C0932D997FB92E8F36C1F018F4F7
:1013C000883579F0B5C0803719F0883721F0B0C082
:1013D000E92FE061BE2EB4FE0DC0FB2DF460BF2EE0
:1013E00009C034FE0AC0292F2660B22E06C028E0AC
:1013F00030E005C020E130E002C020E132E0F80139
:10140000B7FE07C060817181828193810C5F1F4F9D
:1014100006C06081718180E090E00E5F1F4FA301E4
:101420000E94F40A882E8618FB2DFF773F2E36FE89
:101430000DC0232D2E7FA22E891458F434FE0BC02C
:1014400032FC09C0832D8E7EA82E05C0B82CA32C9B
:1014500003C0B82C01C0B92CA4FE0FC0FE01E80DDA
:10146000F11D8081803321F49A2D997EA92E09C027
:10147000A2FE06C0B394B39404C08A2D867809F006
:10148000B394A3FC11C0A0FE06C0B21488F4280CCB
:10149000922C9B180EC0B21460F4B60180E290E06A
:1014A0000E94B80AB394F7CFB21418F42B1802C0F4
:1014B000982C212CA4FE10C0B60180E390E00E947D
:1014C000B80AA2FE17C0A1FC03C088E790E002C0E2
:1014D00088E590E0B6010CC08A2D867859F0A1FE0F
:1014E00002C08BE201C080E2A7FC8DE2B60190E071
:1014F0000E94B80A891438F4B60180E390E00E9493
:10150000B80A9A94F7CF8A94F301E80DF11D80810F
:10151000B60190E00E94B80A8110F5CF222009F4AC
:1015200042CEB60180E290E00E94B80A2A94F6CF3B
:10153000F6018681978102C08FEF9FEF2B96E2E143
:101540000C946E0BFC010590615070400110D8F7AF
:10155000809590958E0F9F1F0895FC0161507040FB
:1015600001900110D8F7809590958E0F9F1F0895D8
:101570000F931F93CF93DF93FB01238121FD03C0C2
:101580008FEF9FEF2CC022FF16C046815781248128
:1015900035814217530744F4A081B1819D012F5F2B
:1015A0003F4F318320838C93268137812F5F3F4FBC
:1015B0003783268314C08B01EC01FB010084F18585
:1015C000E02D0995892BE1F6D80116968D919C9115
:1015D0001797019617969C938E931697CE01DF91DD
:1015E000CF911F910F910895FA01AA27283051F148
:1015F000203181F1E8946F936E7F6E5F7F4F8F4F44
:101600009F4FAF4FB1E03ED0B4E03CD0670F781FA2
:10161000891F9A1FA11D680F791F8A1F911DA11D87
:101620006A0F711D811D911DA11D20D009F46894C0
:101630003F912AE0269F11243019305D3193DEF668
:10164000CF010895462F4770405D4193B3E00FD01E
:10165000C9F7F6CF462F4F70405D4A3318F0495D09
:1016600031FD4052419302D0A9F7EACFB4E0A695EC
:101670009795879577956795BA95C9F7009761050E
:10168000710508959B01AC010A2E06945795479564
:1016900037952795BA95C9F7620F731F841F951F59
:1016A000A01D08952F923F924F925F926F927F926A
:1016B0008F929F92AF92BF92CF92DF92EF92FF9262
:1016C0000F931F93CF93DF93CDB7DEB7CA1BDB0B0E
:1016D0000FB6F894DEBF0FBECDBF09942A883988B3
:1016E00048885F846E847D848C849B84AA84B984BA
:1016F000C884DF80EE80FD800C811B81AA81B981C6
:10170000CE0FD11D0FB6F894DEBF0FBECDBFED01D9
:061710000895F894FFCFDC
:1017160010271027E803D007E80322546872657380
:10172600686F6C645F312200225468726573686F5B
:101736006C645F322200224C696768745F50726580
:101746007365742200224D656469756D5F5072651C
:1017560073657422002248656176795F50726573FD
:101766006574220022506F77657222007B225468CE
:10177600726573686F6C645F31223A25642C22545B
:1017860068726573686F6C645F32223A25642C2236
:101796004C6173745F576569676874223A25642CD7
:1017A600224C696768745F507265736574223A25C6
:1017B600642C224D656469756D5F5072657365743E
:1017C600223A25642C2248656176795F50726573EA
:1017D6006574223A25642C224C696768745F436FEE
:1017E6006E74223A25642C224D656469756D5F43DB
:1017F6006F6E74223A25642C2248656176795F43C0
:101806006F6E74223A25642C22546F74616C5F519A
:1018160075616E74697479223A25642C22506F774B
:101826006572223A25642C2246756C6C223A256430
:101836007D00706F776572206F66660A00706F773D
:101846006572206F6E0A00546172696E672E2E2EC5
:101856000A005461726520646F6E652E0A00776512
:0C18660069676874203D2025640A0000BA
:00000001FF
